{
  "_format": "hh-sol-artifact-1",
  "contractName": "Token",
  "sourceName": "src/contracts/Token.sol",
  "abi": [
    {
      "inputs": [],
      "stateMutability": "nonpayable",
      "type": "constructor"
    },
    {
      "anonymous": false,
      "inputs": [
        {
          "indexed": true,
          "internalType": "address",
          "name": "from",
          "type": "address"
        },
        {
          "indexed": false,
          "internalType": "uint256",
          "name": "timestamp",
          "type": "uint256"
        }
      ],
      "name": "BigBenEvent",
      "type": "event"
    },
    {
      "inputs": [
        {
          "internalType": "address",
          "name": "account",
          "type": "address"
        }
      ],
      "name": "balanceOf",
      "outputs": [
        {
          "internalType": "uint256",
          "name": "",
          "type": "uint256"
        }
      ],
      "stateMutability": "view",
      "type": "function"
    },
    {
      "inputs": [],
      "name": "name",
      "outputs": [
        {
          "internalType": "string",
          "name": "",
          "type": "string"
        }
      ],
      "stateMutability": "view",
      "type": "function"
    },
    {
      "inputs": [],
      "name": "owner",
      "outputs": [
        {
          "internalType": "address payable",
          "name": "",
          "type": "address"
        }
      ],
      "stateMutability": "view",
      "type": "function"
    },
    {
      "inputs": [],
      "name": "symbol",
      "outputs": [
        {
          "internalType": "string",
          "name": "",
          "type": "string"
        }
      ],
      "stateMutability": "view",
      "type": "function"
    },
    {
      "inputs": [],
      "name": "totalSupply",
      "outputs": [
        {
          "internalType": "uint256",
          "name": "",
          "type": "uint256"
        }
      ],
      "stateMutability": "view",
      "type": "function"
    },
    {
      "inputs": [
        {
          "internalType": "uint256",
          "name": "pay",
          "type": "uint256"
        }
      ],
      "name": "transfer",
      "outputs": [],
      "stateMutability": "payable",
      "type": "function"
    }
  ],
  "bytecode": "0x60806040526040518060400160405280601081526020017f4d79204861726468617420546f6b656e000000000000000000000000000000008152506000908051906020019061004f92919061013c565b506040518060400160405280600381526020017f4d485400000000000000000000000000000000000000000000000000000000008152506001908051906020019061009b92919061013c565b50620f42406002553480156100af57600080fd5b50600254600460003373ffffffffffffffffffffffffffffffffffffffff1673ffffffffffffffffffffffffffffffffffffffff1681526020019081526020016000208190555033600360006101000a81548173ffffffffffffffffffffffffffffffffffffffff021916908373ffffffffffffffffffffffffffffffffffffffff160217905550610240565b828054610148906101df565b90600052602060002090601f01602090048101928261016a57600085556101b1565b82601f1061018357805160ff19168380011785556101b1565b828001600101855582156101b1579182015b828111156101b0578251825591602001919060010190610195565b5b5090506101be91906101c2565b5090565b5b808211156101db5760008160009055506001016101c3565b5090565b600060028204905060018216806101f757607f821691505b6020821081141561020b5761020a610211565b5b50919050565b7f4e487b7100000000000000000000000000000000000000000000000000000000600052602260045260246000fd5b61098e8061024f6000396000f3fe6080604052600436106100555760003560e01c806306fdde031461005a57806312514bba1461008557806318160ddd146100a157806370a08231146100cc5780638da5cb5b1461010957806395d89b4114610134575b600080fd5b34801561006657600080fd5b5061006f61015f565b60405161007c919061070e565b60405180910390f35b61009f600480360381019061009a91906105f5565b6101ed565b005b3480156100ad57600080fd5b506100b66103da565b6040516100c391906107a0565b60405180910390f35b3480156100d857600080fd5b506100f360048036038101906100ee91906105cc565b6103e0565b60405161010091906107a0565b60405180910390f35b34801561011557600080fd5b5061011e610429565b60405161012b91906106f3565b60405180910390f35b34801561014057600080fd5b5061014961044f565b604051610156919061070e565b60405180910390f35b6000805461016c90610863565b80601f016020809104026020016040519081016040528092919081815260200182805461019890610863565b80156101e55780601f106101ba576101008083540402835291602001916101e5565b820191906000526020600020905b8154815290600101906020018083116101c857829003601f168201915b505050505081565b60006603328b944c4000905080821161023b576040517f08c379a000000000000000000000000000000000000000000000000000000000815260040161023290610760565b60405180910390fd5b6102b96040518060400160405280601b81526020017f53656e6465722062616c616e636520697320257320746f6b656e730000000000815250600460003373ffffffffffffffffffffffffffffffffffffffff1673ffffffffffffffffffffffffffffffffffffffff168152602001908152602001600020546104dd565b6000600360009054906101000a900473ffffffffffffffffffffffffffffffffffffffff1673ffffffffffffffffffffffffffffffffffffffff1683604051610301906106de565b60006040518083038185875af1925050503d806000811461033e576040519150601f19603f3d011682016040523d82523d6000602084013e610343565b606091505b5050905080610387576040517f08c379a000000000000000000000000000000000000000000000000000000000815260040161037e90610780565b60405180910390fd5b3373ffffffffffffffffffffffffffffffffffffffff167f45e6beeb336d8e60e0d6ddc90bda33c63bb86a895ec80d4f9ecd028ad97a53b2426040516103cd91906107a0565b60405180910390a2505050565b60025481565b6000600460008373ffffffffffffffffffffffffffffffffffffffff1673ffffffffffffffffffffffffffffffffffffffff168152602001908152602001600020549050919050565b600360009054906101000a900473ffffffffffffffffffffffffffffffffffffffff1681565b6001805461045c90610863565b80601f016020809104026020016040519081016040528092919081815260200182805461048890610863565b80156104d55780601f106104aa576101008083540402835291602001916104d5565b820191906000526020600020905b8154815290600101906020018083116104b857829003601f168201915b505050505081565b61057582826040516024016104f3929190610730565b6040516020818303038152906040527f9710a9d0000000000000000000000000000000000000000000000000000000007bffffffffffffffffffffffffffffffffffffffffffffffffffffffff19166020820180517bffffffffffffffffffffffffffffffffffffffffffffffffffffffff8381831617835250505050610579565b5050565b60008151905060006a636f6e736f6c652e6c6f679050602083016000808483855afa5050505050565b6000813590506105b18161092a565b92915050565b6000813590506105c681610941565b92915050565b6000602082840312156105de57600080fd5b60006105ec848285016105a2565b91505092915050565b60006020828403121561060757600080fd5b6000610615848285016105b7565b91505092915050565b610627816107f4565b82525050565b6000610638826107bb565b61064281856107d1565b9350610652818560208601610830565b61065b816108c4565b840191505092915050565b6000610673601a836107d1565b915061067e826108d5565b602082019050919050565b6000610696600d836107d1565b91506106a1826108fe565b602082019050919050565b60006106b96000836107c6565b91506106c482610927565b600082019050919050565b6106d881610826565b82525050565b60006106e9826106ac565b9150819050919050565b6000602082019050610708600083018461061e565b92915050565b60006020820190508181036000830152610728818461062d565b905092915050565b6000604082019050818103600083015261074a818561062d565b905061075960208301846106cf565b9392505050565b6000602082019050818103600083015261077981610666565b9050919050565b6000602082019050818103600083015261079981610689565b9050919050565b60006020820190506107b560008301846106cf565b92915050565b600081519050919050565b600081905092915050565b600082825260208201905092915050565b60006107ed82610806565b9050919050565b60006107ff82610806565b9050919050565b600073ffffffffffffffffffffffffffffffffffffffff82169050919050565b6000819050919050565b60005b8381101561084e578082015181840152602081019050610833565b8381111561085d576000848401525b50505050565b6000600282049050600182168061087b57607f821691505b6020821081141561088f5761088e610895565b5b50919050565b7f4e487b7100000000000000000000000000000000000000000000000000000000600052602260045260246000fd5b6000601f19601f8301169050919050565b7f496e73756666696369656e7420646f6e61746520616d6f756e74000000000000600082015250565b7f446f6e617465206661696c656400000000000000000000000000000000000000600082015250565b50565b610933816107e2565b811461093e57600080fd5b50565b61094a81610826565b811461095557600080fd5b5056fea2646970667358221220744995dd9ed8cdbd3295633642d88a9b1e7da6e1dedef6e60b98abf9c2132e2264736f6c63430008010033",
  "linkReferences": {},
  "deployedLinkReferences": {}
}